8=FIX.4.4|9=71|35=A|34=1|49=ORDERGEN|52=20260622-23:18:00.156|56=ORDERACC|98=0|108=30|10=149|8=FIX.4.4|9=157|35=D|34=2|49=ORDERGEN|52=20260622-23:18:19.932|56=ORDERACC|11=4202602c88aa4229bbd33dbeed138dc3|21=1|38=100|40=2|44=10|54=1|55=PETR4|60=20260622-23:18:19.929|10=248|8=FIX.4.4|9=59|35=0|34=3|49=ORDERGEN|52=20260622-23:18:50.132|56=ORDERACC|10=114|8=FIX.4.4|9=59|35=0|34=4|49=ORDERGEN|52=20260622-23:19:20.326|56=ORDERACC|10=118|8=FIX.4.4|9=59|35=0|34=5|49=ORDERGEN|52=20260622-23:19:50.609|56=ORDERACC|10=126|8=FIX.4.4|9=59|35=0|34=6|49=ORDERGEN|52=20260622-23:20:20.817|56=ORDERACC|10=117|8=FIX.4.4|9=59|35=0|34=7|49=ORDERGEN|52=20260622-23:20:51.237|56=ORDERACC|10=118|8=FIX.4.4|9=59|35=0|34=8|49=ORDERGEN|52=20260622-23:21:21.504|56=ORDERACC|10=114|8=FIX.4.4|9=59|35=0|34=9|49=ORDERGEN|52=20260622-23:21:51.768|56=ORDERACC|10=130|8=FIX.4.4|9=60|35=0|34=10|49=ORDERGEN|52=20260622-23:22:22.003|56=ORDERACC|10=143|8=FIX.4.4|9=60|35=0|34=11|49=ORDERGEN|52=20260622-23:22:52.298|56=ORDERACC|10=163|8=FIX.4.4|9=60|35=0|34=12|49=ORDERGEN|52=20260622-23:23:22.623|56=ORDERACC|10=154|8=FIX.4.4|9=158|35=D|34=13|49=ORDERGEN|52=20260622-23:23:29.386|56=ORDERACC|11=6f93fd6b8e014f5789c770a5fa8d7109|21=1|38=100|40=2|44=10|54=1|55=PETR4|60=20260622-23:23:29.386|10=241|8=FIX.4.4|9=60|35=0|34=14|49=ORDERGEN|52=20260622-23:23:59.654|56=ORDERACC|10=170|8=FIX.4.4|9=158|35=D|34=15|49=ORDERGEN|52=20260622-23:24:05.473|56=ORDERACC|11=096b645729a2425383b12713f37429f5|21=1|38=100|40=2|44=10|54=1|55=PETR4|60=20260622-23:24:05.473|10=177|8=FIX.4.4|9=60|35=0|34=16|49=ORDERGEN|52=20260622-23:24:35.689|56=ORDERACC|10=175|8=FIX.4.4|9=158|35=D|34=17|49=ORDERGEN|52=20260622-23:24:37.749|56=ORDERACC|11=c2b1d2662ce744748ff0df97c04cf06e|21=1|38=100|40=2|44=10|54=1|55=PETR4|60=20260622-23:24:37.749|10=072|8=FIX.4.4|9=158|35=D|34=18|49=ORDERGEN|52=20260622-23:24:52.764|56=ORDERACC|11=b3f77d6b4cb9420f8827e3fff5d102d9|21=1|38=100|40=2|44=10|54=1|55=PETR4|60=20260622-23:24:52.764|10=069|8=FIX.4.4|9=60|35=0|34=19|49=ORDERGEN|52=20260622-23:25:22.765|56=ORDERACC|10=170|8=FIX.4.4|9=72|35=A|34=20|49=ORDERGEN|52=20260622-23:27:07.534|56=ORDERACC|98=0|108=30|10=206|8=FIX.4.4|9=60|35=0|34=21|49=ORDERGEN|52=20260622-23:27:37.922|56=ORDERACC|10=166|8=FIX.4.4|9=60|35=0|34=22|49=ORDERGEN|52=20260622-23:28:08.161|56=ORDERACC|10=161|8=FIX.4.4|9=60|35=0|34=23|49=ORDERGEN|52=20260622-23:28:38.478|56=ORDERACC|10=176|8=FIX.4.4|9=60|35=0|34=24|49=ORDERGEN|52=20260622-23:29:08.764|56=ORDERACC|10=173|8=FIX.4.4|9=162|35=D|34=25|49=ORDERGEN|52=20260622-23:29:23.634|56=ORDERACC|11=178704b6112946059f51cc8f6ea70b14|21=1|38=1000|40=2|44=10.00|54=1|55=PETR4|60=20260622-23:29:23.632|10=251|8=FIX.4.4|9=60|35=0|34=26|49=ORDERGEN|52=20260622-23:29:53.944|56=ORDERACC|10=175|8=FIX.4.4|9=60|35=0|34=27|49=ORDERGEN|52=20260622-23:30:24.156|56=ORDERACC|10=161|8=FIX.4.4|9=60|35=0|34=28|49=ORDERGEN|52=20260622-23:30:54.530|56=ORDERACC|10=161|8=FIX.4.4|9=60|35=0|34=29|49=ORDERGEN|52=20260622-23:31:24.749|56=ORDERACC|10=172|8=FIX.4.4|9=72|35=A|34=30|49=ORDERGEN|52=20260622-23:32:00.255|56=ORDERACC|98=0|108=30|10=196|8=FIX.4.4|9=162|35=D|34=31|49=ORDERGEN|52=20260622-23:32:15.426|56=ORDERACC|11=afaa0cb60ed6457ab22290c6f667e517|21=1|38=1000|40=2|44=10.00|54=1|55=PETR4|60=20260622-23:32:15.426|10=213|8=FIX.4.4|9=60|35=0|34=32|49=ORDERGEN|52=20260622-23:32:45.666|56=ORDERACC|10=168|8=FIX.4.4|9=60|35=0|34=33|49=ORDERGEN|52=20260622-23:33:15.971|56=ORDERACC|10=166|8=FIX.4.4|9=60|35=0|34=34|49=ORDERGEN|52=20260622-23:33:46.281|56=ORDERACC|10=165|8=FIX.4.4|9=60|35=0|34=35|49=ORDERGEN|52=20260622-23:34:16.523|56=ORDERACC|10=163|8=FIX.4.4|9=60|35=0|34=36|49=ORDERGEN|52=20260622-23:34:46.733|56=ORDERACC|10=170|8=FIX.4.4|9=60|35=0|34=37|49=ORDERGEN|52=20260622-23:35:16.988|56=ORDERACC|10=181|8=FIX.4.4|9=60|35=0|34=38|49=ORDERGEN|52=20260622-23:35:47.200|56=ORDERACC|10=163|8=FIX.4.4|9=60|35=0|34=39|49=ORDERGEN|52=20260622-23:36:17.556|56=ORDERACC|10=176|8=FIX.4.4|9=60|35=0|34=40|49=ORDERGEN|52=20260622-23:36:47.792|56=ORDERACC|10=173|8=FIX.4.4|9=60|35=0|34=41|49=ORDERGEN|52=20260622-23:37:18.032|56=ORDERACC|10=160|8=FIX.4.4|9=60|35=0|34=42|49=ORDERGEN|52=20260622-23:37:48.259|56=ORDERACC|10=175|8=FIX.4.4|9=72|35=A|34=43|49=ORDERGEN|52=20260622-23:38:28.687|56=ORDERACC|98=0|108=30|10=225|8=FIX.4.4|9=60|35=0|34=44|49=ORDERGEN|52=20260622-23:38:59.024|56=ORDERACC|10=170|8=FIX.4.4|9=164|35=D|34=45|49=ORDERGEN|52=20260622-23:39:28.325|56=ORDERACC|11=b12b4fde83264d5b9a54b9943edf91f3|21=1|38=99999|40=2|44=999.99|54=1|55=PETR4|60=20260622-23:39:28.324|10=184|8=FIX.4.4|9=60|35=0|34=46|49=ORDERGEN|52=20260622-23:39:58.575|56=ORDERACC|10=183|8=FIX.4.4|9=160|35=D|34=47|49=ORDERGEN|52=20260622-23:40:05.643|56=ORDERACC|11=f1eae2e6403047eaa796d7aaaa374322|21=1|38=3|40=2|44=999.99|54=1|55=PETR4|60=20260622-23:40:05.643|10=159|8=FIX.4.4|9=60|35=0|34=48|49=ORDERGEN|52=20260622-23:40:35.995|56=ORDERACC|10=178|8=FIX.4.4|9=60|35=0|34=49|49=ORDERGEN|52=20260622-23:41:06.287|56=ORDERACC|10=172|8=FIX.4.4|9=60|35=0|34=50|49=ORDERGEN|52=20260622-23:41:36.479|56=ORDERACC|10=170|8=FIX.4.4|9=60|35=0|34=51|49=ORDERGEN|52=20260622-23:42:06.745|56=ORDERACC|10=165|8=FIX.4.4|9=60|35=0|34=52|49=ORDERGEN|52=20260622-23:42:37.001|56=ORDERACC|10=155|8=FIX.4.4|9=60|35=0|34=53|49=ORDERGEN|52=20260622-23:43:07.268|56=ORDERACC|10=169|8=FIX.4.4|9=60|35=0|34=54|49=ORDERGEN|52=20260622-23:43:37.485|56=ORDERACC|10=174|8=FIX.4.4|9=72|35=A|34=55|49=ORDERGEN|52=20260622-23:48:07.719|56=ORDERACC|98=0|108=30|10=222|8=FIX.4.4|9=164|35=D|34=56|49=ORDERGEN|52=20260622-23:48:29.796|56=ORDERACC|11=783003c62de547a8894be0c648ad42af|21=1|38=99999|40=2|44=999.99|54=1|55=PETR4|60=20260622-23:48:29.794|10=108|8=FIX.4.4|9=160|35=D|34=57|49=ORDERGEN|52=20260622-23:48:43.670|56=ORDERACC|11=439a2a7364584889a067a0399b862721|21=1|38=3|40=2|44=999.99|54=1|55=PETR4|60=20260622-23:48:43.670|10=084|8=FIX.4.4|9=164|35=D|34=58|49=ORDERGEN|52=20260622-23:48:54.604|56=ORDERACC|11=fbcc4c584184497e89ef126263dae728|21=1|38=99999|40=2|44=999.99|54=1|55=VALE3|60=20260622-23:48:54.604|10=082|8=FIX.4.4|9=160|35=D|34=59|49=ORDERGEN|52=20260622-23:49:00.985|56=ORDERACC|11=be4dfab91ac842f09e6f0f84179cd7ee|21=1|38=3|40=2|44=999.99|54=1|55=VALE3|60=20260622-23:49:00.985|10=085|